:020000020000FC
:0200000034C00A
:02002400BEC05C
:100068002EC00FEF0093600400EF0093000400E03F
:100078000093800400E00093010A01E000930A0A5B
:1000880001E60093260A00E00093270A01E00093A6
:10009800000603E00093B0000AE0009302060BE0BC
:1000A8000093080601E000930C06B7D00DE000931A
:1000B800000A01E000930A0678940000FECF0F932F
:1000C8001F932F933F934F935F93009110061091C6
:1000D800110624EC39E0C4D064E08894479537953C
:1000E8006A95D9F704EF11E03017410728F0301B63
:1000F800410B032F142F03C06894031B140BBFD0AC
:10010800209109402F702093034033D0209307405B
:1001180020910940207F269526952695269520939F
:10012800024027D02093064020910A402F70209348
:1001380001401FD0209305402EF42EEF2093044059
:10014800E8940CC020910A40207F26952695269594
:100158002695209300400DD0209304406F915F9125
:100168004F913F912F911F910F9101E000930A0643
:100178001895FF93EF93F1E0E2E900E02F70E20FAA
:10018800F01F2491EF91FF910895014F12064C241E
:10019800200F00040860314230380F931F932F93CB
:1001A8000FB70F93AF93BF9301E000930B0A0FEFC4
:1001B80000930404109108401395143040F51093EF
:1001C8000840B0E4A4E0A10F2C91209364041030FF
:1001D80031F0113041F0123051F0133061F020E766
:1001E800209304040CC020EB2093040408C020EDE5
:1001F8002093040404C020EE2093040400C0BF919F
:10020800AF910F910FBF2F911F910F91189510E08B
:1002180010930840B0E4A4E0D2CF00E00DB90093F9
:10022800084011B1106F11B930E1003019F0330FE7
:100238000A95FBCF11B1132711B94AE00BD00091F1
:100248000840039500930840043058F311B1106F2B
:1002580011B9089515E81A95F1F74A95D9F708954F
:100268005527442760E13695279510F4400F511F14
:1002780057954795379527956A95B9F708950F9338
:100288001F932F933F9320E140E040930940409310
:100298000A4040930B40D0900940E0900A40F0900B
:1002A8000B40000F111FDD1CEE1CFF1CD0920940F3
:1002B800E0920A40F0920B402A9529F43F912F9141
:1002C8001F910F910895ECE0F0E432913D5F33FD0A
:1002D80030833081305D37FD3083E930B1F7F03459
:0402E800A1F7D9CFD2
:00000001FF
