:020000020000FC
:0200000012C02C
:1000240077C00FEF0093600400EF0093000400E03A
:100034000093800400E00093010A01E000930A0A9F
:1000440001E60093260A00E00093270A01E00093EA
:10005400000603E00093B0000AE0009302060BE000
:100064000093080695D00DE00093000A01E0009388
:100074000A06789401D0FECF0F931F932F933F93DA
:1000840000910D0600FF28C0309110061091110652
:10009400212F207F2695269526952695209300408E
:1000A40023D020930440212F2F70209301401CD093
:1000B40020930540232F207F269526952695269567
:1000C4002093024011D020930640232F2F702093B9
:1000D40003400AD0209307403F912F911F910F9125
:1000E40001E000930A060895FF93EF93F1E0E4E042
:1000F40000E02F70E20FF01F2491EF91FF9108951B
:10010400014F12064C24200F00040860314230389D
:100114000F931F932F930FB70F93AF93BF9301E0E8
:1001240000930B0A0FEF00930404109108401395F9
:10013400143040F510930840B0E4A4E0A10F2C91D2
:1001440020936404103031F0113041F0123051F03A
:10015400133061F020E7209304040CC020EB2093BB
:10016400040408C020ED2093040404C020EE20936E
:10017400040400C0BF91AF910F910FBF2F911F9145
:100184000F91189510E010930840B0E4A4E0D2CF8A
:1001940000E00DB90093084011B1106F11B930E1BE
:1001A400003019F0330F0A95FBCF11B1132711B9A1
:1001B4004AE00BD0009108400395009308400430B6
:1001C40058F311B1106F11B9089515E81A95F1F7A4
:0601D4004A95D9F70895D9
:00000001FF
