:020000020000FC
:020000000FC02F
:10001C000C942F000FEF0093600400EF009300048A
:10002C0000E00093010A01E000930A0A04E6009341
:10003C00260A00E00093270A0DE00093000A78944A
:10004C0004E000930928009109280030E1F7000032
:10005C00FECF0F931F932F930FB70F93AF93BF93B5
:10006C0001E000930B0A0FEF0093040400910928A0
:10007C00003039F100C010E0109364040A9500932D
:10008C000928033071F0023081F0013091F000301A
:10009C00A1F0BF91AF910F910FBF2F911F910F91B5
:1000AC0018951FE710930404F4CF1FEB109304046E
:1000BC00F0CF1FED10930404ECCF1FEE109304044B
:1000CC00E8CF109108281395143080F41093082869
:1000DC00B8E2A4E0A10F2C9120936404103009F332
:1000EC00113019F3123029F3133039F310E0109357
:0800FC000828B8E2A4E0EACFF5
:00000001FF
